:020000040800F2
:10000000E804002001010008870E0008FD0D00082B
:10001000850E00086D0100088D100008000000002A
:100020000000000000000000000000008B0E00082F
:10003000B301000800000000890E00088D0E0008C2
:100040001B0100081B0100081B0100081B01000820
:100050001B0100081B0100081B0100081B01000810
:100060001B0100081B0100081B0100081B01000800
:100070001B0100081B0100081B0100081B010008F0
:10008000710100087D0100081B0100081B01000828
:100090001B0100081B0100081B0100081B010008D0
:1000A0001B0100081B0100081B0100081B010008C0
:1000B0001B0100081B0100081B0100081B010008B0
:1000C0001B0100081B0100081B0100081B010008A0
:1000D0001B0100081B0100081B0100081B01000890
:1000E0001B0100081B0100081B010008DFF80CD0F1
:1000F00000F02AF800480047CD100008E80400206E
:100100000648804706480047FEE7FEE7FEE7FEE7B1
:10011000FEE7FEE7FEE7FEE7FEE7FEE7DD0E00088E
:10012000ED000008D2B201E000F8012B491EFBD21D
:1001300070470022F6E710B513460A4604461946F2
:10014000FFF7F0FF204610BD064C074D06E0E068C3
:1001500040F0010394E8070098471034AC42F6D30E
:10016000FFF7C8FF3C1300085C130008FEE700001F
:10017000014800F021B8000060000020014800F0B4
:100180001BB80000A400002030B590F840500124B6
:10019000AC40C56B6C60046863604368102B0368F7
:1001A00003D099600068C26030BD9A600068C16089
:1001B00030BD7047704700002DE9F05FC16B0C68DF
:1001C00001680B68D0F840C0042202FA0CF2494DD5
:1001D000DFF824A1494E4A4FDFF828B1DFF828E1C3
:1001E00022422CD05A072AD50A68920603D40A68FC
:1001F00022F004020A600168A94201D1042219E038
:10020000514501D1402215E0B14202D14FF4806244
:1002100010E0B94202D14FF480420BE0594502D1BF
:100220004FF4802206E0714502D14FF4800201E0D4
:100230004FF080622F4908394A60C16A3BE04FF0B5
:10024000020808FA0CF818EA040F4FF000094FF002
:10025000010235D05FEA837832D50B689B0605D45E
:100260000B6823F00A030B6080F821200168A94283
:1002700001D1022219E0514501D1202215E0B142FD
:1002800002D14FF4007210E0B94202D14FF4005293
:100290000BE0594502D14FF4003206E0714502D11E
:1002A0004FF4001201E04FF00072124908394A6021
:1002B00080F82090816A00291AD0BDE8F05F0847D5
:1002C000082505FA0CF5254212D01B0710D50B683E
:1002D00023F00E030B6090F84010C36B02FA01F19B
:1002E0005960826380F8212080F82090016BE2E75A
:1002F000BDE8F09F080002401C00024030000240B0
:1003000044000240580002406C00024030B528B35F
:1003100008C8134914221944B1FBF2F18900C163E2
:1003200010498163022141771A6843F6F0718A43CC
:10033000D0E900142143D0E902452C43214304694C
:1003400021434469214384692143114319600021F9
:100350004163012242770177084630BD012030BD5C
:10036000F8FFFDBF0000024070B5044690F8200081
:10037000002501280CD0012084F8200094F8216089
:100380000020012E06D084F820000225284670BDEA
:10039000022070BD022684F82160A06320680668F0
:1003A00026F0010606602046FFF7EEFEE06A002810
:1003B0002068016802D041F00E0106E021F004013E
:1003C00001602068016841F00A010160206801684D
:1003D00041F001010160D9E770B5044600F008F969
:1003E0000546601C02D004480078044400F000F97F
:1003F000401BA042FAD370BD000000202DE9F84F49
:10040000DFF8B891002409F1040A0AF1040B23462D
:100410000F270BF1040EC9E00125A5402A40AA428E
:100420007DD1674ED1F804C0ACEB0608B44532D09C
:1004300014DCBCF1030F3AD009DCBCF1000F2AD068
:10044000BCF1010F1CD0BCF1020F31D11DE0BCF199
:10045000110F17D0BCF1120F2AD119E0B8F5881F7F
:1004600019D006DCB8F5803F15D0B8F5801F1FD134
:1004700011E0B8F5001F0ED0B8F5041F18D10AE03E
:10048000CB6815E0CB681B1D12E0CB6808330FE08A
:10049000CB680C330CE08B682BB1012B4FF00803B9
:1004A00003D0456104E0042302E0056100E000237D
:1004B000FF2A01D8064601E000F104064FEA840550
:1004C00001D9A5F12005D6F8008007FA05FC28EA35
:1004D0000C0803FA05F548EA0508C6F800804D68DF
:1004E000ED0062D5374DAE6946F00106AE61AD69EB
:1004F00024F0030605F001050095334D06EB050CCD
:10050000DCF80850A607360F07FA06F825EA0805B2
:10051000DFF8B880404503D14FF0000817E044E011
:10052000DFF8AC80404502D14FF001080FE0DFF862
:10053000A480404502D14FF0020808E0DFF898801F
:10054000404502D14FF0030801E04FF0040808FADB
:1005500006F848EA0508CCF808804D68D9F800602C
:10056000ED034D4601D5164300E096432E604D68DD
:10057000DAF80060AD03554601D5164300E0964316
:100580002E604D68DBF80060ED025D4601D5164334
:1005900000E096432E604D68DEF80060AD027546BF
:1005A00001D5164300E096432E60641C0D682A4670
:1005B000E5407FF431AFBDE8F88F00000004014052
:1005C000000011100010024000000140000801402E
:1005D000000C0140001001400014014080680840F8
:1005E00000D0012070470AB1016170470904FBE7A0
:1005F00001488068704700000000002002488168C0
:10060000027811448160704700000020074810B54F
:10061000016841F010010160032000F075F800202E
:1006200000F006F800F024F8002010BD0020024081
:1006300070B50D4D04464FF47A712878B1FBF0F097
:100640000A490968B1FBF0F000F0ECFA48B9102C47
:1006500007D200222146501E00F036F800206C60C0
:1006600070BD012070BD0000000000200C000020C3
:100670000C4808B5816941F001018161816901F08F
:1006800001010091C16941F08051C161C06900F070
:10069000805000900448416821F0E06141F0007111
:1006A000416008BD0010024000000140002809DB45
:1006B00000F01F02012191404009800000F1E0207C
:1006C000C0F8001170470000F0B40E4B1B680C46D8
:1006D000C3F30223C3F10705042D00D90425191D16
:1006E000072901D2002300E0DB1E012606FA05F1EE
:1006F000491E214099409E40761E16403143F0BC71
:1007000000F0C5BC0CED00E0064900F007020868E7
:100710004FF6FF03184040EA0220034A10430860E6
:10072000704700000CED00E00000FA052DE9F047ED
:100730000F46050061D0434E306800F00700B84214
:1007400009D2306820F0070038433060306800F08C
:100750000700B84251D128683B4C810712D54007A9
:1007600003D5606840F4E06060602878000703D536
:10077000606840F4605060606068A96820F0F00034
:10078000084360602878C00728D06868012810D026
:100790002168022810D0890700292EDA616821F02B
:1007A000030101436160FFF723FF804641F288396E
:1007B0000DE021688903EFE78901EDE7FFF718FFF6
:1007C000A0EB0801494502D90320BDE8F087606825
:1007D000696800F00C00B0EB810FEFD1306800F0D9
:1007E0000700B8420BD9306820F00700384330606A
:1007F000306800F00700B84201D00120E5E7287812
:10080000400705D56068E96820F4E060084360604F
:100810002878000706D56068296920F4605040EA0E
:10082000C100606000F038F86168084AC1F3031144
:10083000515CC8400649086006480068FFF7F8FEAA
:100840000020C2E7002002400010024024130008EC
:100850000C00002004000020044805490068496895
:10086000044AC1F30221515CC84070470C000020CB
:100870000010024034130008044805490068496824
:10088000044AC1F3C221515CC84070470C000020EB
:10089000001002403413000812A185B00FC98DE882
:1008A0000F0014A0144A006804905168134801F026
:1008B0000C03042B10D0082B0ED1C1F38343C903C2
:1008C0001DF803000AD5516804AAC1F34041515CE8
:1008D0000A4A5043B0FBF1F005B07047084948435D
:1008E000FAE7000002030405060708090A0B0C0DCD
:1008F0000E0F1010010200000010024000127A00DA
:1009000000093D002DE9F84F040070D02078C04D5B
:10091000C00749D06868C0F38100012807D0686823
:10092000C0F38100022809D16868C00306D5286891
:10093000800339D560680028E7D035E06068B0F5FD
:10094000803F0BD010B1B0F5A02F11D0286820F453
:1009500080302860286820F4802002E0286840F475
:1009600080302860606890B1FFF742FE06460AE0DA
:10097000286840F480202860F0E700BFFFF738FEC9
:10098000801B642873D828688003F7D50CE0FFF734
:100990002FFE064605E000BFFFF72AFE801B6428F5
:1009A000F0D828688003F7D420789A4E80074FF05B
:1009B00001094FF0000839D5686810F00C0F07D016
:1009C0006868C0F38100022809D16868C00306D4B2
:1009D0002868800714D52069012808D110E0206913
:1009E000B0B1C6F80090FFF703FE074605E00AE144
:1009F000FFF7FEFDC01B0228C4D828688007F7D582
:100A00002868616920F0F80040EAC10028600DE024
:100A1000C6F80080FFF7ECFD074604E0FFF7E8FDAD
:100A2000C01B022823D828688007F7D42078000745
:100A30002CD57948A169D9B1C0F80090FFF7D8FD4D
:100A4000074604E0FFF7D4FDC01B02280FD8686AF0
:100A50008007F7D571484FF4FA510068B0FBF1F008
:100A6000009000BF0098411E0091FAD20EE080E095
:100A7000C0F80080FFF7BCFD074604E0FFF7B8FDB3
:100A8000C01B022875D8686A8007F7D42078400711
:100A900060D5E8690027C00008D4E86940F08050BC
:100AA000E861E869012700F0805000905C48016827
:100AB000C90513D40168834641F480710160FFF7D2
:100AC00097FD824606E000BFFFF792FDA0EB0A000B
:100AD00064284ED8DBF80000C005F5D5E068012891
:100AE0000AD008B1052813D0286A20F00100286236
:100AF000286A20F0040002E0286A40F00100286221
:100B0000E06841F2883B98B1FFF772FD82460BE046
:100B1000286A40F004002862EEE700BFFFF768FD96
:100B2000A0EB0A0159455AD8286A8007F6D50CE08F
:100B3000FFF75EFD824605E0FFF75AFDA0EB0A01D4
:100B400059454CD8286A8007F6D41FB1E86920F0CF
:100B50008050E861E06988B36968C1F381010229C6
:100B600044D00228C6F8608004D0FFF741FD044657
:100B700038E034E0FFF73CFD074604E0FFF738FDBE
:100B8000C01B02282BD828688001F7D4206AB0F552
:100B9000803F05D16868A16820F400300843686090
:100BA000D4E908010843696821F4741108436860B6
:100BB000C6F86090FFF71CFD044606E025E000BF84
:100BC000FFF716FD001B022809D828688001F7D519
:100BD0001BE000BFFFF70CFD001B022802D9032019
:100BE000BDE8F88F28688001F4D40EE00128F7D022
:100BF0006868226A00F48031914204D1616A00F48D
:100C00007010884201D00120EAE70020E8E70000E8
:100C10000010024000004242800442420C000020CA
:100C20000070004010B5401EB0F1807F01D301205C
:100C300010BD4FF0E02460610F21601700F027FA2B
:100C40000020A06107202061002010BD704770B512
:100C5000040004D094F83900002510B106E001200A
:100C600070BD84F83850204600F022F8242084F823
:100C700039002068C16821F40051C160204600F0AD
:100C8000A9F92068016921F4904101612068416956
:100C900021F02A0141612068C16841F40051C1601E
:100CA000E563202084F8390084F83A00002070BD04
:100CB000F0B585B000240646009401940294039494
:100CC00000682749884249D12648C16941F400316A
:100CD000C161C16901F400310491816941F00401ED
:100CE00081618069204D00F0040004900420009090
:100CF000022001900320039069462846FFF77EFBFF
:100D00000820CDE90004694628460294FFF776FBE7
:100D1000174D16488027C5E90004C5E902472C6134
:100D20006C61AC612846EC61FFF7F0FA08B1FFF79F
:100D300041FA75636E620D480E4D143001C51020E6
:100D400091C50C4845F810496C61AC61EC61FFF746
:100D5000DDFA08B1FFF72EFA35636E6205B0F0BD1B
:100D60000044004000100240000801406C000240B6
:100D700060000020A400002070B5044690F83900FF
:100D8000202830D169B362B394F8380001282AD002
:100D9000012084F838002162A284E2840025E56302
:100DA000212084F83900236B10489862236B104887
:100DB000D862236B0F481863206B1346456326687F
:100DC000206B321DFFF7D0FA21686FF040000860F9
:100DD00084F838502068416941F080014161002069
:100DE00070BD012070BD022070BD00006F0F0008B3
:100DF0009D0F0008250F000870477047FEE70000B0
:100E0000F0B585B000241C4800940194029403942A
:100E1000816941F020018161816901F02001049123
:100E2000816941F004018161816901F0040104914B
:100E3000816941F0080181618069104F00F008006C
:100E40004FF470660490012231463846FFF7CBFB21
:100E5000300101258DE8310069460948FFF7CEFAD7
:100E60000220CDE90240CDE9006569463846FFF72A
:100E7000C5FA05B0F0BD00000010024000080140B6
:100E8000000C0140FEE7704770477047FFF7B6BBA4
:100E900030B58FB028216846FFF74BF914210AA816
:100EA000FFF747F901210804CDE90010002402945E
:100EB00002250491CDE90750C00009906846FFF76C
:100EC00021FD0F200A90CDE90B540D9401210AA8B1
:100ED0000E94FFF72BFC0FB030BD00000D480168E9
:100EE00041F00101016041680B4A11404160016815
:100EF0000A4A11400160016821F4802101604168C3
:100F000021F4FE0141604FF41F0181600449C003D8
:100F100008607047001002400000FFF8FFFFF6FE77
:100F200008ED00E070B5446A2068406994F8391013
:100F3000C0F3C0100025212904D118B1E584204652
:100F400000F03FF82068406994F83A10C0F3801030
:100F5000222904D118B1E585204600F024F8E06B81
:100F600040F01000E0632046FFF770FE70BD10B542
:100F70000146406A0968096889060CD40021C184C9
:100F800001684A6922F080024A610068C16841F044
:100F90004001C16010BDFFF72FFF10BD10B5406AC2
:100FA000FFF72BFF10BD0168CA6822F49072CA6077
:100FB00001684A6922F001024A61202180F83A1052
:100FC00070470168CA6822F0C002CA60202180F818
:100FD000391070472DE9F041044600680169E26864
:100FE00021F44051114301612169A06808436169FE
:100FF00008432168CA6841F20C639A430243CA60FD
:1010000020684169A26921F44071114341611E4980
:10101000206864253226884202D1FFF72DFC01E0CA
:10102000FFF71AFC00EBC00101EB001160686FF0E4
:1010300018078000B1FBF0F2B2FBF5F2B1FBF0F360
:101040007A4303EB8202B1FBF0F306EB0212B2FB30
:10105000F5F2B3FBF5F302F0F00202EB0312B1FB81
:10106000F0F3B1FBF0F0B0FBF5F0784303EB800058
:1010700006EB0010B0FBF5F0216800F00F00104403
:101080008860BDE8F081000000380140FEE70907F4
:10109000090E002804DB00F1E02080F800147047FE
:1010A00000F00F0000F1E02080F8141D704702E00E
:1010B00008C8121F08C1002AFAD1704770470020E3
:1010C00001E001C1121F002AFBD1704708B5FFF7EC
:1010D0009DFAFFF7DDFEFFF793FE8D48416941F071
:1010E000010141614069002200F0010000901146B9
:1010F0001020FFF7E9FA1020FFF7D8FA0022114676
:101100001120FFF7E1FA1120FFF7D0FA8248814958
:10111000002401604FF4E131C0E901140C21C460E6
:10112000C0E904418461C461FFF791FD7A4C7B4DB5
:101130007B4E4FF4804940344FF4807A0022514670
:101140003046FFF750FA4FF480512846FFF746FA31
:1011500020B9FA20FFF740F9012020704FF4005821
:1011600041462846FFF73AFA20B9FA20FFF734F94A
:101170000520607049462846FFF730FA20B9FA206A
:10118000FFF72AF90920A0704FF4004B5946284672
:10119000FFF724FA20B9FA20FFF71EF90D20E070BE
:1011A000012251463046FFF71EFA00224FF400712B
:1011B0003046FFF718FA4FF480512846FFF70EFA31
:1011C00020B9FA20FFF708F902202071C2464146F3
:1011D0002846FFF703FA20B9FA20FFF7FDF80620AA
:1011E00060714F4649462846FFF7F8F920B9FA20C2
:1011F000FFF7F2F80A20A071D84659462846FFF7B3
:10120000EDF920B9FA20FFF7E7F82A20E071012272
:1012100051023046FFF7E7F94FF4806B0022594640
:101220003046FFF7E0F94FF480512846FFF7D6F932
:1012300020B9FA20FFF7D0F8032020725146284643
:10124000FFF7CCF920B9FA20FFF7C6F80720607243
:10125000B94639462846FFF7C1F920B9FA20FFF709
:10126000BBF80B20A07241462846FFF7B7F920B91A
:10127000FA20FFF7B1F82320E072012259463046E8
:10128000FFF7B1F94FF40067002239463046FFF707
:10129000AAF979002846FFF7A1F920B9FA20FFF74B
:1012A0009BF80420207351462846FFF797F920B990
:1012B000FA20FFF791F80820607349462846FFF7A7
:1012C0008DF920B9FA20FFF787F80C20A07341466A
:1012D0002846FFF783F920B9FA20FFF77DF80020B0
:1012E000E073012239463046FFF77DF90A491022A2
:1012F00040310948FFF740FDFA20FFF76DF8002064
:1013000001462154401CC0B21028FAD314E7000053
:10131000001002400044004010000020000C01407A
:10132000000801400000000000000000010203046A
:101330000607080900000000010203045C1300080E
:101340000000002010000000AE1000086C13000820
:1013500010000020D8040000BE10000801000000AA
:0C13600010000000000000000024F40059
:04000005080000ED02
:00000001FF
